{
  "contractName": "Project",
  "abi": [
    {
      "inputs": [
        {
          "internalType": "address payable",
          "name": "projectOwner",
          "type": "address"
        },
        {
          "internalType": "uint256",
          "name": "pID",
          "type": "uint256"
        }
      ],
      "payable": false,
      "stateMutability": "nonpayable",
      "type": "constructor"
    },
    {
      "constant": true,
      "inputs": [],
      "name": "currentBal",
      "outputs": [
        {
          "internalType": "uint256",
          "name": "",
          "type": "uint256"
        }
      ],
      "payable": false,
      "stateMutability": "view",
      "type": "function"
    },
    {
      "constant": true,
      "inputs": [
        {
          "internalType": "address",
          "name": "",
          "type": "address"
        }
      ],
      "name": "funds",
      "outputs": [
        {
          "internalType": "uint256",
          "name": "",
          "type": "uint256"
        }
      ],
      "payable": false,
      "stateMutability": "view",
      "type": "function"
    },
    {
      "constant": true,
      "inputs": [],
      "name": "owner",
      "outputs": [
        {
          "internalType": "address payable",
          "name": "",
          "type": "address"
        }
      ],
      "payable": false,
      "stateMutability": "view",
      "type": "function"
    },
    {
      "constant": false,
      "inputs": [
        {
          "internalType": "uint256",
          "name": "state",
          "type": "uint256"
        }
      ],
      "name": "changeState",
      "outputs": [],
      "payable": false,
      "stateMutability": "nonpayable",
      "type": "function"
    },
    {
      "constant": false,
      "inputs": [],
      "name": "getSquaredSqrtFundsSum",
      "outputs": [
        {
          "internalType": "uint256",
          "name": "",
          "type": "uint256"
        }
      ],
      "payable": false,
      "stateMutability": "nonpayable",
      "type": "function"
    },
    {
      "constant": false,
      "inputs": [],
      "name": "contribute",
      "outputs": [],
      "payable": true,
      "stateMutability": "payable",
      "type": "function"
    }
  ],
  "bytecode": "0x608060405234801561001057600080fd5b5060405161087a38038061087a8339818101604052604081101561003357600080fd5b81019080805190602001909291908051906020019092919050505080600181905550816000806101000a81548173ffffffffffffffffffffffffffffffffffffffff021916908373ffffffffffffffffffffffffffffffffffffffff1602179055506000600260006101000a81548160ff021916908360028111156100b457fe5b021790555050506107b0806100ca6000396000f3fe6080604052600436106100555760003560e01c8063173b8edd1461005a5780636fc44344146100855780638da5cb5b146100b0578063b00741cb14610107578063d7bb99ba14610142578063e2ae93fb1461014c575b600080fd5b34801561006657600080fd5b5061006f6101b1565b6040518082815260200191505060405180910390f35b34801561009157600080fd5b5061009a610274565b6040518082815260200191505060405180910390f35b3480156100bc57600080fd5b506100c561027a565b604051808273ffffffffffffffffffffffffffffffffffffffff1673ffffffffffffffffffffffffffffffffffffffff16815260200191505060405180910390f35b34801561011357600080fd5b506101406004803603602081101561012a57600080fd5b810190808035906020019092919050505061029f565b005b61014a610437565b005b34801561015857600080fd5b5061019b6004803603602081101561016f57600080fd5b81019080803573ffffffffffffffffffffffffffffffffffffffff169060200190929190505050610669565b6040518082815260200191505060405180910390f35b600080600090505b6006805490508110156102615761024560046000600684815481106101da57fe5b9060005260206000200160009054906101000a900473ffffffffffffffffffffffffffffffffffffffff1673ffffffffffffffffffffffffffffffffffffffff1673ffffffffffffffffffffffffffffffffffffffff16815260200190815260200160002054610681565b60056000828254019250508190555080806001019150506101b9565b5061026f60055460026106c8565b905090565b60035481565b6000809054906101000a900473ffffffffffffffffffffffffffffffffffffffff1681565b6000809054906101000a900473ffffffffffffffffffffffffffffffffffffffff1673ffffffffffffffffffffffffffffffffffffffff163373ffffffffffffffffffffffffffffffffffffffff1614610344576040517f08c379a00000000000000000000000000000000000000000000000000000000081526004018080602001828103825260248152602001806107586024913960400191505060405180910390fd5b60018114156103cc576402dfdaca2d42116103c7576040517f08c379a000000000000000000000000000000000000000000000000000000000815260040180806020018281038252601f8152602001807f6f6e676f696e672070686173652063616e6e6f7420626520737461727465640081525060200191505060405180910390fd5b610434565b6002811415610433576402dfdc1bad4211610432576040517f08c379a00000000000000000000000000000000000000000000000000000000081526004018080602001828103825260218152602001806107376021913960400191505060405180910390fd5b5b5b50565b600180600281111561044557fe5b600260009054906101000a900460ff16600281111561046057fe5b146104d3576040517f08c379a000000000000000000000000000000000000000000000000000000000815260040180806020018281038252601e8152602001807f436f6e7472616374206e6f7420696e207265717569726564207374617465000081525060200191505060405180910390fd5b60003490506000600460003373ffffffffffffffffffffffffffffffffffffffff1673ffffffffffffffffffffffffffffffffffffffff1681526020019081526020016000205414156105cf5760063390806001815401808255809150509060018203906000526020600020016000909192909190916101000a81548173ffffffffffffffffffffffffffffffffffffffff021916908373ffffffffffffffffffffffffffffffffffffffff1602179055505080600460003373ffffffffffffffffffffffffffffffffffffffff1673ffffffffffffffffffffffffffffffffffffffff16815260200190815260200160002081905550610655565b80600460003373ffffffffffffffffffffffffffffffffffffffff1673ffffffffffffffffffffffffffffffffffffffff1681526020019081526020016000205401600460003373ffffffffffffffffffffffffffffffffffffffff1673ffffffffffffffffffffffffffffffffffffffff168152602001908152602001600020819055505b806003600082825401925050819055505050565b60046020528060005260406000206000915090505481565b6000806002838161068e57fe5b04905060008090505b8082146106be5781905060028285816106ac57fe5b048301816106b657fe5b049150610697565b8192505050919050565b6000808214156106db5760019050610730565b6001600283816106e757fe5b06141561070457826106fc84600185036106c8565b029050610730565b610718836002848161071257fe5b046106c8565b61072c846002858161072657fe5b046106c8565b0290505b9291505056fe636f6d706c657465642070686173652063616e6e6f74206265207374617274656443616e6e6f7420616c6c6f7720616363657373206f74686572207468616e206f776e6572a265627a7a72315820d0d4d941c2f5c6b1eab044ddf16ebf4a8abbca826321b65aa7184d02f5d02e7764736f6c63430005100032",
  "source": "// SPDX-License-Identifier: GPL-3.0\r\n\r\npragma solidity >=0.4.22 <0.9.0;\r\n\r\n/**\r\n * @title Storage\r\n * @dev Store & retrieve value in a variable\r\n */\r\ncontract Project {\r\n\r\n    enum State {initialized, ongoing, completed}\r\n\r\n    address payable public owner;                                                                  //to store owner, here = the actual Project owner\r\n    uint256 projectID;                                                              //unused variable, may find a use later\r\n    uint256 constant startRaisingFrom = 12345678765 - 1 days;\r\n    uint256 constant raiseBy = 12345678765;\r\n    State currentState;\r\n    uint256 public currentBal;\r\n    mapping(address => uint) public funds;\r\n    uint sqrtFundsSum;\r\n    address[] uniqueContributors;\r\n    \r\n    //modifier to allow access only to the owner\r\n    modifier isOwner() {\r\n        require(msg.sender == owner, \"Cannot allow access other than owner\");\r\n        _;\r\n    }\r\n    \r\n    //modifier to allow the function to proceed only if contract is in intended state\r\n    modifier isState(State reqState) {\r\n        require(currentState == reqState, \"Contract not in required state\");\r\n        _;\r\n    }\r\n    \r\n    //initializes the pID of the project for identifying or mapping other project metadata\r\n    //to any database(eg. IPFS), the projectOwner to payout to, and the currentState to \r\n    //initialized\r\n    constructor(address payable projectOwner, uint pID) public {\r\n        projectID = pID;\r\n        owner = projectOwner;\r\n        currentState = State.initialized;\r\n    }\r\n    \r\n    //function to calculate square root of x\r\n    function sqrt(uint x) internal pure returns (uint){\r\n       uint n = x / 2;\r\n       uint lstX = 0;\r\n       while (n != lstX){\r\n           lstX = n;\r\n           n = (n + x/n) / 2; \r\n       }\r\n       return uint(n);\r\n   }\r\n   \r\n   //function to calculate x raised to the power p\r\n   function pow(uint x, uint p) internal pure returns (uint) {\r\n        if(p == 0)\r\n            return 1;\r\n        if(p % 2 == 1) {\r\n            return pow(x, p-1)*x;\r\n        } else {\r\n            return pow(x, p / 2)*pow(x, p / 2);\r\n        }\r\n    }\r\n    \r\n    //function to change the currentState variable of the contract based on comparing block timestamp \r\n    //to constant raiseBy and startRaisingFrom to meet isState modifier requirements. Currently only\r\n    //the owner can change the phase but chainlink keeper can be implemented later to automate the \r\n    //change state process.\r\n    function changeState(uint state) public isOwner {\r\n        if(state == 1){\r\n            require(block.timestamp > startRaisingFrom, \"ongoing phase cannot be started\");\r\n        } else if(state ==2){\r\n            require(block.timestamp > raiseBy, \"completed phase cannot be started\");\r\n        }\r\n    }\r\n    \r\n    //function to return the square of the sum of the square root of individual contributions when \r\n    //requested by the Qfunding contract\r\n    function getSquaredSqrtFundsSum() public returns (uint){\r\n        for(uint i = 0; i<uniqueContributors.length; i++){\r\n            sqrtFundsSum += sqrt(funds[uniqueContributors[i]]);\r\n        }\r\n        return pow(sqrtFundsSum, 2);\r\n    }\r\n    \r\n    //function to recieve contributions from people adn recording it into the mapping funds. the mapping\r\n    //is required to reference and check if a address has already contributed some amount to prevent\r\n    //user from breaking his contribution into small amounts to cheat quadratic funding. \r\n    function contribute() public payable isState(State.ongoing) {\r\n        uint amountRecieved = msg.value;\r\n        if(funds[msg.sender] == 0){\r\n            uniqueContributors.push(msg.sender);\r\n            funds[msg.sender] = amountRecieved;\r\n        }else {\r\n            funds[msg.sender] = funds[msg.sender] + amountRecieved;\r\n        }\r\n        //currentBal variable is redundant as the same can achieve by this.balance\r\n        currentBal += amountRecieved;\r\n        \r\n    }\r\n    \r\n    //function to payout the funds collected in this project contract to the projectOwner\r\n    //TODO check with the access specifier\r\n    // function payout() isOwner public payable isState(State.completed) {\r\n    //     uint amount = this.balance;\r\n    //     projectOwner.transfer(amount);\r\n    // }\r\n    \r\n    \r\n    \r\n}",
  "sourcePath": "D:\\Programming\\Hackathon-DecentralHacks\\Quadratic-Funding\\contracts\\Project.sol",
  "compiler": {
    "name": "solc",
    "version": "0.5.16+commit.9c3226ce.Emscripten.clang"
  },
  "schemaVersion": "3.4.3",
  "updatedAt": "2021-10-05T05:33:37.456Z",
  "devdoc": {
    "details": "Store & retrieve value in a variable",
    "methods": {},
    "title": "Storage"
  },
  "userdoc": {
    "methods": {}
  }
}