{
  "contractName": "Pool",
  "abi": [
    {
      "inputs": [],
      "payable": false,
      "stateMutability": "nonpayable",
      "type": "constructor"
    },
    {
      "constant": false,
      "inputs": [
        {
          "internalType": "uint256",
          "name": "state",
          "type": "uint256"
        }
      ],
      "name": "changeState",
      "outputs": [],
      "payable": false,
      "stateMutability": "nonpayable",
      "type": "function"
    },
    {
      "constant": false,
      "inputs": [],
      "name": "recieveToPool",
      "outputs": [],
      "payable": true,
      "stateMutability": "payable",
      "type": "function"
    },
    {
      "constant": false,
      "inputs": [
        {
          "internalType": "uint256",
          "name": "matchRatio",
          "type": "uint256"
        },
        {
          "internalType": "address payable",
          "name": "projectOwner",
          "type": "address"
        }
      ],
      "name": "payoutPoolMatch",
      "outputs": [],
      "payable": true,
      "stateMutability": "payable",
      "type": "function"
    }
  ],
  "bytecode": "0x608060405234801561001057600080fd5b5033600260006101000a81548173ffffffffffffffffffffffffffffffffffffffff021916908373ffffffffffffffffffffffffffffffffffffffff16021790555060008060006101000a81548160ff0219169083600281111561007057fe5b0217905550610503806100846000396000f3fe6080604052600436106100345760003560e01c80631c1eb764146100395780632d1f0e3014610043578063b00741cb14610091575b600080fd5b6100416100cc565b005b61008f6004803603604081101561005957600080fd5b8101908080359060200190929190803573ffffffffffffffffffffffffffffffffffffffff1690602001909291905050506101fb565b005b34801561009d57600080fd5b506100ca600480360360208110156100b457600080fd5b81019080803590602001909291905050506102f0565b005b60003490506000600360003373ffffffffffffffffffffffffffffffffffffffff1673ffffffffffffffffffffffffffffffffffffffff1681526020019081526020016000205414156101625780600360003373ffffffffffffffffffffffffffffffffffffffff1673ffffffffffffffffffffffffffffffffffffffff168152602001908152602001600020819055506101e8565b80600360003373ffffffffffffffffffffffffffffffffffffffff1673ffffffffffffffffffffffffffffffffffffffff1681526020019081526020016000205401600360003373ffffffffffffffffffffffffffffffffffffffff1673ffffffffffffffffffffffffffffffffffffffff168152602001908152602001600020819055505b8060016000828254019250508190555050565b600260009054906101000a900473ffffffffffffffffffffffffffffffffffffffff1673ffffffffffffffffffffffffffffffffffffffff163373ffffffffffffffffffffffffffffffffffffffff16146102a1576040517f08c379a00000000000000000000000000000000000000000000000000000000081526004018080602001828103825260248152602001806104ab6024913960400191505060405180910390fd5b8073ffffffffffffffffffffffffffffffffffffffff166108fc60015484029081150290604051600060405180830381858888f193505050501580156102eb573d6000803e3d6000fd5b505050565b600260009054906101000a900473ffffffffffffffffffffffffffffffffffffffff1673ffffffffffffffffffffffffffffffffffffffff163373ffffffffffffffffffffffffffffffffffffffff1614610396576040517f08c379a00000000000000000000000000000000000000000000000000000000081526004018080602001828103825260248152602001806104ab6024913960400191505060405180910390fd5b600181141561041e576402dfdaca2d4211610419576040517f08c379a000000000000000000000000000000000000000000000000000000000815260040180806020018281038252601f8152602001807f6f6e676f696e672070686173652063616e6e6f7420626520737461727465640081525060200191505060405180910390fd5b610486565b6002811415610485576402dfdc1bad4211610484576040517f08c379a000000000000000000000000000000000000000000000000000000000815260040180806020018281038252602181526020018061048a6021913960400191505060405180910390fd5b5b5b5056fe636f6d706c657465642070686173652063616e6e6f74206265207374617274656443616e6e6f7420616c6c6f7720616363657373206f74686572207468616e206f776e6572a265627a7a72315820646d1af71ae19cd194a43e529c9e686e093e6fc816cd583c3dcf2709df24b33764736f6c63430005100032",
  "source": "// SPDX-License-Identifier: GPL-3.0\n\npragma solidity >=0.4.22 <0.9.0;\n\n\ncontract Pool {\n\n    enum State {initialized, ongoing, completed}\n    \n    uint256 constant startRaisingFrom = 12345678765 - 1 days;\n    uint256 constant raiseBy = 12345678765;\n    State currentState;\n    uint poolValue;\n    address owner;\n    mapping(address => uint) sponsorFunds;\n    \n    //modifier to allow access only to the owner\n    modifier isOwner() {\n        require(msg.sender == owner, \"Cannot allow access other than owner\");\n        _;\n    }\n    \n    //modifier to allow the function to proceed only if contract is in intended state\n    modifier isState(State reqState) {\n        require(currentState == reqState, \"Contract not in required state\");\n        _;\n    }\n    \n    //initializes the owner of the contract and currentState of the contract to initialized.\n    constructor () public {\n        owner = msg.sender;\n        currentState = State.initialized;\n    }\n    \n    //function to change the currentState variable of the contract based on comparing block timestamp \n    //to constant raiseBy and startRaisingFrom to meet isState modifier requirements. Currently only\n    //the owner can change the phase but chainlink keeper can be implemented later to automate the \n    //change state process.\n    //TODO check the access specifier\n    function changeState(uint state) public isOwner {\n        if(state == 1){\n            require(block.timestamp > startRaisingFrom, \"ongoing phase cannot be started\");\n        } else if(state ==2){\n            require(block.timestamp > raiseBy, \"completed phase cannot be started\");\n        }\n    }\n \n    //function to recieve funds from sponsors to make up the pool\n    function recieveToPool () public payable {\n        uint amountRecieved = msg.value;\n        if(sponsorFunds[msg.sender] == 0){\n            sponsorFunds[msg.sender] = amountRecieved;\n        }else {\n            sponsorFunds[msg.sender] = sponsorFunds[msg.sender] + amountRecieved;\n        }\n        //poolValue redundatn as same can be achieved by this.balance\n        poolValue += amountRecieved;\n    }\n    \n    //function to pay the project owner his match by multiplying the amtch ratio with the total poolValue\n    function payoutPoolMatch(uint matchRatio, address payable projectOwner) public payable isOwner {\n        projectOwner.transfer(matchRatio*poolValue);\n    }\n \n \n}",
  "sourcePath": "/home/roach/dev/solidity/Quadratic-Funding/contracts/Pool.sol",
  "compiler": {
    "name": "solc",
    "version": "0.5.16+commit.9c3226ce.Emscripten.clang"
  },
  "schemaVersion": "3.4.3",
  "updatedAt": "2021-09-29T18:59:26.321Z",
  "devdoc": {
    "methods": {}
  },
  "userdoc": {
    "methods": {}
  }
}